:0400000087EF00F096
:08000800046ED8CF05F0E0CF33
:1000100006F00001E9CF0CF0EACF07F0E1CF08F0DD
:10002000E2CF09F0D9CF0AF0DACF0BF0F3CF12F01C
:10003000F4CF13F0FACF14F000C00EF001C00FF0AF
:1000400002C010F003C011F09DAA2AEF00F09EBA82
:1000500057EF00F00EC000F00FC001F010C002F02A
:1000600011C003F00CC0E9FF07C0EAFF078E08C00B
:10007000E1FF09C0E2FF0AC0D9FF0BC0DAFF12C0DE
:10008000F3FF13C0F4FF14C0FAFF045006C0E0FFF2
:1000900005C0D8FF10009EAAFED7ABCF16F0AECF9A
:1000A00001F016A202D0AB98AB885AEF00F09EAADE
:1000B00007D0F1D701C018F01850310801E189705C
:1000C0009E9A2AEF00F0EA6A170EE96EEF500DE0F3
:1000D000020E016E006A002EFED7012EFBD7970E8E
:1000E000006E002EFED7EF2EF3D7A5EF00F081CFE4
:1000F00017F0173A0F0E1716300E172617C001F01B
:10010000ACEF00F09EA8FED7AD6EB0EF00F0F86A3D
:10011000D09E078E700ED36ED350166AB8960C0E12
:10012000AF6EA20EAC6E900EAB6EC150C00B0F093D
:10013000C16E070EB46EFF0E936E000E926E9D8A16
:10014000C00EF212C80E176EBED781B804D081BAA5
:1001500002D081AC05D0CBD701C017F01750D2D751
:04016000F1D70300D0
:020000040030CA
:0E00000027C83E1E0087A1000FC00FE00F4072
:00000001FF
;PIC18F4550
;CRC=56B1  CREATED="29-abr.-18 16:32"
