:04000000B8EF00F065
:08000800046ED8CF05F0E0CF33
:1000100006F00001E9CF0CF0EACF07F0E1CF08F0DD
:10002000E2CF09F0D9CF0AF0DACF0BF0F3CF12F01C
:10003000F4CF13F0FACF14F000C00EF001C00FF0AF
:1000400002C010F003C011F09DAA2AEF00F09EBA82
:1000500057EF00F00EC000F00FC001F010C002F02A
:1000600011C003F00CC0E9FF07C0EAFF078E08C00B
:10007000E1FF09C0E2FF0AC0D9FF0BC0DAFF12C0DE
:10008000F3FF13C0F4FF14C0FAFF045006C0E0FFF2
:1000900005C0D8FF10009EAAFED7ABCF16F0AECF9A
:1000A00001F016A202D0AB98AB885AEF00F09EAADE
:1000B00007D0F1D701C021F021506B0801E289700F
:1000C0009E9A2AEF00F041542B4349504D55583D1C
:1000D000310D0A0041542B43495053455256455265
:1000E0003D312C3232320D0A000041542B4349502D
:1000F00053544152543D322C22544350222C22312D
:1001000039322E3136382E342E32222C3232320D04
:100110000A0041542B43495053454E443D322C3143
:100120000D0A00006A0D0A00EA6A230EE96EEF501C
:100130000DE0020E016E006A002EFED7012EFBD7E5
:10014000970E006E002EFED7EF2EF3D71200090097
:10015000F5520DE0F6CF22F0F7CF23F0F5509EA830
:10016000FED7AD6E22C0F6FF23C0F7FFF0D7120016
:10017000F86AD09E078E700ED36ED350166AB8966A
:100180000C0EAF6EA20EAC6E900EAB6E6C0E216EAE
:10019000C150C00B0F09C16E070EB46EC00E176EB2
:1001A000F90E186EA40E196EB00E1A6E990E1B6E13
:1001B000920E1C6E820E1D6EF80E1E6E800E1F6E4D
:1001C000900E206EFF0E936E000E956E926E240EB2
:1001D000226EFA0E236EA8DF222EFBD7C60EF66E15
:1001E000000EF76EB4DF140E226EFA0E236E9CDF43
:1001F000222EFBD7D40EF66E000EF76EA8DF180E77
:10020000226EFA0E236E90DF222EFBD7EA0EF66ED8
:10021000000EF76E9CDF040E226EFA0E236E84DF52
:10022000222EFBD789809D8AC00EF212C80E236E43
:100230007BDF81A811D0120EF66E010EF76E87DFFC
:10024000020E226EFA0E236E6FDF222EFBD7240ED3
:10025000F66E010EF76E7BDF21506B080DE26B0E20
:10026000215E036A2150170FE96E000E0320EA6E2B
:0C027000EFCF22F022C08CFFD9D7030092
:020000040030CA
:0E00000027C83E1E0087A1000FC00FE00F4072
:00000001FF
;PIC18F4550
;CRC=B9C4  CREATED="07-jun.-18 06:50"
