:04000000C1EF00F05C
:08000800046ED8CF05F0E0CF33
:1000100006F00001E9CF0CF0EACF07F0E1CF08F0DD
:10002000E2CF09F0D9CF0AF0DACF0BF0F3CF12F01C
:10003000F4CF13F0FACF14F000C00EF001C00FF0AF
:1000400002C010F003C011F09DAA2AEF00F09EBA82
:1000500057EF00F00EC000F00FC001F010C002F02A
:1000600011C003F00CC0E9FF07C0EAFF078E08C00B
:10007000E1FF09C0E2FF0AC0D9FF0BC0DAFF12C0DE
:10008000F3FF13C0F4FF14C0FAFF045006C0E0FFF2
:1000900005C0D8FF10009EAAFED7ABCF16F0AECF9A
:1000A00001F016A202D0AB98AB885AEF00F09EAADE
:1000B00007D0F1D701C01AF01A506A0801E189701F
:1000C0009E9A2AEF00F041542B4349504D55583D1C
:1000D000310D0A0041542B43495053455256455265
:1000E0003D312C3232320D0A000041542B4349502D
:1000F00053544152543D322C22544350222C22312D
:1001000039322E3136382E342E31222C3232320D05
:100110000A0041542B43495053454E443D322C3143
:100120000D0A0000EA6A190EE96EEF500DE0020EAA
:10013000016E006A002EFED7012EFBD7970E006ECF
:10014000002EFED7EF2EF3D712000900F5520DE076
:10015000F6CF18F0F7CF19F0F5509EA8FED7AD6E88
:1001600018C0F6FF19C0F7FFF0D7120081CF18F0C2
:10017000183A0F0E18166B0E182618C001F00BEF68
:1001800001F0F86AD09E078E700ED36ED350166AB7
:10019000B8960C0EAF6EA20EAC6E900EAB6EC15048
:1001A000C00B0F09C16E070EB46EFF0E936E000EEA
:1001B000926E240E186EFA0E196EB4DF182EFBD74D
:1001C000C60EF66E000EF76EC0DF0C0E186EFA0E3D
:1001D000196EA8DF182EFBD7D40EF66E000EF76E40
:1001E000B4DF140E186EFA0E196E9CDF182EFBD7B2
:1001F000EA0EF66E000EF76EA8DF89809D8AC00EAB
:10020000F212C80E196E8EDF81B804D081BA02D006
:1002100081AC1ED0ABD701C017F017506B0818E0A7
:10022000120EF66E010EF76E90DF020E186EFA0EC9
:10023000196E78DF182EFBD717509EA8FED7AD6E2B
:100240000D0E9EA8FED7AD6E0A0E9EA8FED7AD6E0F
:04025000D8D70300F8
:020000040030CA
:0E00000027C83E1E0087A1000FC00FE00F4072
:00000001FF
;PIC18F4550
;CRC=D1EC  CREATED="09-jun.-18 13:55"
