:0400000095EF00F088
:08000800046ED8CF05F0E0CF33
:1000100006F00001E9CF0CF0EACF07F0E1CF08F0DD
:10002000E2CF09F0D9CF0AF0DACF0BF0F3CF12F01C
:10003000F4CF13F0FACF14F000C00EF001C00FF0AF
:1000400002C010F003C011F0F2A62AEF00F0F2B0E7
:100050008BEF00F09DAA30EF00F09EBA5DEF00F04C
:100060000EC000F00FC001F010C002F011C003F08C
:100070000CC0E9FF07C0EAFF078E08C0E1FF09C016
:10008000E2FF0AC0D9FF0BC0DAFF12C0F3FF13C0B2
:10009000F4FF14C0FAFF045006C0E0FF05C0D8FF0B
:1000A00010009EAAFED7ABCF16F0AECF01F016A27D
:1000B00002D0AB98AB8860EF00F09EAA10D0F1D7C9
:1000C00001C021F0300E215E036A2150170FE96E46
:1000D000000E0320EA6EEFCF22F022C08CFF9E9A22
:1000E00030EF00F09EA8FED7AD6E8FEF00F0EA6A09
:1000F000210EE96EEF500DE0020E016E006A002E37
:10010000FED7012EFBD7970E006E002EFED7EF2EE6
:10011000F3D792EF00F081A805D0310EE3D7640E3B
:10012000216EE5D7F29030EF00F0F86AD09E078E8E
:10013000700ED36ED350166AB8960C0EAF6EA20E28
:10014000AC6E900EAB6EC150C00B0F09C16E070EA6
:10015000B46EC00E176EF90E186EA40E196EB00EA6
:100160001A6E990E1B6E920E1C6E820E1D6EF80E8C
:100170001E6E800E1F6E900E206EFF0E936E000E90
:0E018000956E9D8AF286C00EF212F18C03007D
:020000040030CA
:0E00000027C83E1E0087A1000FC00FE00F4072
:00000001FF
;PIC18F4550
;CRC=5A09  CREATED="06-jun.-18 19:17"
